:020000040800F2
:100000007804002001010008BF1100085311000806
:10001000BD11000849010008C115000800000000DA
:10002000000000000000000000000000E3110008D4
:100030004903000800000000E1110008E511000874
:100040001B0100081B0100081B0100081B01000820
:100050001B0100081B0100081B0100081B01000810
:100060001B0100081B0100081B0100081B01000800
:100070001B0100081B0100081B0100081B010008F0
:100080001B0100081B0100081B0100081B010008E0
:100090001B0100081B0100081B0100081B010008D0
:1000A0001B0100081B0100081B0100081B010008C0
:1000B0001B0100081B0100081B0100081B010008B0
:1000C0001B0100081B0100081B0100081B010008A0
:1000D0001B010008B51500081B0100081B010008E2
:1000E0001B0100081B0100081B010008DFF80CD0F1
:1000F00000F018F8004800475D160008780400205A
:100100000648804706480047FEE7FEE7FEE7FEE7B1
:10011000FEE7FEE7FEE7FEE7FEE7FEE75D1200080A
:10012000ED000008064C074D06E0E06840F00103D2
:1001300094E8070098471034AC42F6D3FFF7DAFF93
:100140005817000878170008FEE7000010B5642073
:1001500000F0FBF81A4C00220221204600F0E7F9DB
:1001600001220421204600F0E2F900220821204665
:1001700000F0DDF905221349302000F0C1F81149E3
:100180000522491D2A2000F0BBF80121212000F0A2
:100190009DF80121222000F099F80021252000F08F
:1001A00095F82021312000F091F80721262000F059
:1001B0008DF80E21BDE81040202000F087B8000027
:1001C00000080140000000201FB51E200090012003
:1001D00001900320074C03906946204600F0C0F8C8
:1001E00000212020CDE9000102916946204600F05F
:1001F000B7F81FBD0008014070B50E4D044600223F
:100200000221284600F093F905220B492A2000F02C
:1002100077F820222146A02000F072F80E2120203D
:1002200000F054F82846BDE870400122022100F099
:100230007EB90000000801400000002010B50A4C03
:1002400000220221204600F072F90E21202000F049
:100250003DF801220221204600F069F9BDE8104076
:10026000822000F072B80000000801402DE9F04142
:10027000154E05460024280601D5012200E0002283
:100280001021304600F053F9052000F05EF86806B2
:10029000070E01220821304600F049F9052000F040
:1002A00054F82021304600F039F940EA07050022D1
:1002B0000821304600F03BF9641CE4B2082CDAD384
:1002C0002846BDE8F08100000008014070B50B4DE4
:1002D0000E46044600220421284600F028F9204654
:1002E000FFF7C4FF04463046FFF7C0FF0122042198
:1002F000284600F01CF9204670BD000000080140AF
:100300002DE9F041DFF83C8016460D4604460022F8
:100310000421404600F00BF92046FFF7A7FF0746EF
:10032000002405E015F8010BFFF7A0FF641CE4B200
:10033000B442F7D301220421404600F0F8F83846D1
:10034000BDE8F08100080140704731B500F0F4F8D5
:10035000044600F0F1F80099001B8842F9D338BD3B
:100360002DE9F84FDFF890A100220AF1040B1446A2
:1003700001274FF00F090BF1040E00BF0B6807FABD
:1003800004F52B40AB4274D1DFF870C14E68A6EB88
:100390000C0866452BD00DDC032E34D005DC36B3BB
:1003A000012E19D0022E2FD11BE0112E16D0122EA5
:1003B0002AD119E0B8F5881F19D006DCB8F5803FBE
:1003C00015D0B8F5801F1FD111E0B8F5001F0ED071
:1003D000B8F5041F18D10AE0CA6815E0CA68121DF2
:1003E00012E0CA6808320FE0CA680C320CE08A6872
:1003F0002AB1012A4FF0080203D0456104E004222B
:1004000002E0056100E00022FF2B01D8064601E072
:1004100000F104064FEA840501D9A5F12005D6F8BC
:1004200000C009FA05F82CEA080C02FA05F54CEAB6
:10043000050CC6F800C04D68ED0057D5304DAE69CB
:1004400046F00106AE61AD6924F0030605F0010532
:1004500000952C4D06EB050CDCF80850A6074FEA7A
:10046000167809FA08F6B543274EB04202D10026A5
:1004700010E03BE0254EB04201D101260AE0244EB7
:10048000B04201D1022605E0224EB04201D103263E
:1004900000E0042606FA08F62E43CCF808604D6802
:1004A000DAF80060ED03554601D51E4300E09E4397
:1004B0002E604D68DBF80060AD035D4601D51E433C
:1004C00000E09E432E604D68DEF80060ED02754648
:1004D00001D51E4300E09E432E604D68AD020E4DD7
:1004E0002E6801D51E4300E09E432E60641C102C34
:1004F000FFF444AFBDE8F88F000401400000111084
:10050000001002400000014000080140000C0140C2
:1005100000100140001401400C04014080680840B4
:1005200000D001207047C2684A40C26070470AB1DB
:10053000016170470904FBE701480068704700004B
:100540000C00002002480168491C0160704700004F
:100550000C000020074810B5016841F0100101604F
:10056000032000F087F8002000F006F800F016F8ED
:10057000002010BD0020024010B5044600F050F9E4
:100580004FF47A71B0FBF1F000F090FC00222146AC
:10059000501E00F04FF8002010BD00001D4808B5A7
:1005A000816941F001018161806900F001000090E2
:1005B000032000F05FF8002211466FF00B0000F0FE
:1005C00039F8002211466FF00A0000F033F80022DB
:1005D00011466FF0090000F02DF800221146501F5F
:1005E00000F028F800221146101F00F023F8002226
:1005F0001146901E00F01EF800221146501E00F019
:1006000019F80548416821F0E06141F0007141604E
:1006100008BD0000001002400000014000F01F0271
:10062000012191404009800000F1E020C0F8001154
:1006300070470000F0B40E4B1B680C46C3F3022356
:10064000C3F10705042D00D90425191D072901D27E
:10065000002300E0DB1E012606FA05F1491E2140B9
:1006600099409E40761E16403143F0BC00F0A8BD74
:100670000CED00E0064900F0070208684FF6FF03A2
:10068000184040EA0220034A104308607047000007
:100690000CED00E00000FA052DE9F047DFF870816D
:1006A00005460E46D8F8000000F00700B0420CD214
:1006B000D8F8001021F007013143C8F80010D8F82D
:1006C000000000F00700B04277D12878514C800735
:1006D00005D56068A96820F0F000084360602878BC
:1006E000C00759D06968012001290DD0022929D0FD
:1006F0005FF0020393FAA3F2B2FA82F242F0200210
:10070000520904D0226803E04FF40033F2E7626A32
:1007100093FAA3F3B3FA83F303F01F039840024262
:100720004BD0606820F0030008436060FFF704FFCF
:100730006968074641F2883001290DD002298146B7
:1007400017D025E04FF00073D4E700BFFFF7F4FEA9
:10075000C11B494501D918E081466068C0F381009A
:100760000128F3D118E000BFFFF7E6FEC11B4945A1
:100770000BD86068C0F381000228F5D10CE000BFFF
:10078000FFF7DAFEC11B494502D90320BDE8F08717
:10079000606810F00C0FF3D1D8F80010404601F05B
:1007A0000701B1420BD9016821F007013143016013
:1007B000006800F00700B04201D00120E6E7287889
:1007C000400705D56068E96820F4E0600843606090
:1007D0002878000706D56068296920F4605040EA4F
:1007E000C100606000F052F86168F02292FAA2F253
:1007F00001F0F001B2FA82F2D140074A515CC840E0
:10080000064908600020FFF7B7FE0020BEE70000A1
:100810000020024000100240401700081000002095
:10082000014800687047000010000020084809498E
:10083000006849684FF4E06292FAA2F201F4E061C4
:10084000B2FA82F2D140044A515CC84070470000BD
:100850001000002000100240501700080848094905
:10086000006849684FF4605292FAA2F201F46051B4
:10087000B2FA82F2D140044A515CC840704700008D
:1008800010000020001002405017000810B519A3F6
:1008900085B00FCB8DE80F001AA01B4B00680490A9
:1008A0005A681A4802F00C0104291DD008291BD1EE
:1008B0004FF4701494FAA4F402F47011B4FA84F4AE
:1008C000E140D2031DF8011010D55A684FF40033EF
:1008D00093FAA3F302F40032B3FA83F3DA4004ABE1
:1008E0009A5CB0FBF2F0484305B010BD084848439D
:1008F000FAE7000002030405060708090A0B0C0DBD
:100900000E0F1010010200000010024000127A00C9
:1009100000093D002DE9F84F04460078F74DC00767
:100920004FF0010625D068687704C0F381000128E4
:1009300007D06868C0F3810002281BD16868C00333
:1009400018D597FAA7F0B0FA80F040F020004009DF
:1009500001D0286800E0686A97FAA7F1B1FA81F13E
:1009600001F01F0106FA01F108425ED0606800281C
:100970007CD05AE06068B0F5803F0BD010B1B0F584
:10098000A02F11D0286820F480302860286820F437
:10099000802002E0286840F480302860606828B336
:1009A000FFF7CAFD80460BE0286840F480202860ED
:1009B000F0E700BFFFF7C0FDA0EB0800642871D886
:1009C00097FAA7F0B0FA80F040F02000400901D07B
:1009D000286800E0686A97FAA7F1B1FA81F101F09E
:1009E0001F0106FA01F10842E4D01EE0FFF7A4FD62
:1009F000804605E0FFF7A0FDA0EB08006428DED8E4
:100A000097FAA7F0B0FA80F040F02000400901D03A
:100A1000286800E0686A97FAA7F1B1FA81F101F05D
:100A20001F0106FA01F10842E4D12078DFF8D082F4
:100A300080074FF000094FF002075BD568684FF060
:100A4000F80B10F00C0F07D06868C0F38100022883
:100A50001CD16868C00319D497FAA7F0B0FA80F0E7
:100A600040F02000400902D0286801E08BE0686A6D
:100A700097FAA7F1B1FA81F101F01F0106FA01F12D
:100A800008422CD0206901287DD128E0206990B34C
:100A900096FAA6F0B0FA80F048F82060FFF74CFD17
:100AA000824607E011E100BFFFF746FDA0EB0A0018
:100AB000022884D897FAA7F0B0FA80F040F020001E
:100AC000400901D0286800E0686A97FAA7F1B1FAF6
:100AD00081F101F01F0106FA01F10842E4D0286813
:100AE0009BFAABF26169B2FA82F220F0F800914011
:100AF0000843286025E0FFE796FAA6F1B1FA81F1F4
:100B000048F82190FFF718FD824605E0FFF714FD35
:100B1000A0EB0A000228CCD897FAA7F0B0FA80F030
:100B200040F02000400901D0286800E0686A97FA88
:100B3000A7F1B1FA81F101F01F0106FA01F10842B3
:100B4000E4D1207800076ED5A069B8B396FAA6F074
:100B5000B0FA80F008EB8000C0F88064FFF7ECFC8E
:100B6000824605E0FFF7E8FCA0EB0A000228A0D8C7
:100B700097FAA7F0B0FA80F040F06000B6EB501F93
:100B800002D128680CE062E197FAA7F0B0FA80F091
:100B900040F06000B7EB501F01D1286A00E0686A9E
:100BA00097FAA7F1B1FA81F101F01F0106FA01F2FB
:100BB0001042D7D00120FFF7C8FB34E0FFE796FAD8
:100BC000A6F1B1FA81F108EB8101C1F88094FFF739
:100BD000B3FC824606E000BFFFF7AEFCA0EB0A00C4
:100BE000022872D897FAA7F0B0FA80F040F06000BF
:100BF000B6EB501F01D128680BE097FAA7F0B0FAC6
:100C000080F040F06000B7EB501F01D1286A00E08F
:100C1000686A97FAA7F1B1FA81F101F01F0106FAAB
:100C200001F21042D8D12078400765D5E86940F03C
:100C30008050E861E869DFF8CCB000F080500090A7
:100C4000DBF8001041F48071CBF80010FFF774FC62
:100C5000824605E0FFF770FCA0EB0A00642834D858
:100C6000DBF80000C005F5D5E06801280AD008B11E
:100C7000052813D0286A20F001002862286A20F095
:100C8000040002E0286A40F001002862E06841F2B6
:100C9000883B90B3FFF750FC82460BE0286A40F097
:100CA00004002862EEE700BFFFF746FCA0EB0A0154
:100CB00059450AD897FAA7F0B0FA80F040F0400002
:100CC000B6EB501F02D128680CE0A3E097FAA7F01A
:100CD000B0FA80F040F04000B7EB501F01D1286A15
:100CE00000E0686A97FAA7F1B1FA81F101F01F02FA
:100CF00006FA02F10842D7D031E005E000100240C8
:100D00000000424200700040FFF716FC824605E0FA
:100D1000FFF712FCA0EB0A0159457BD897FAA7F020
:100D2000B0FA80F040F04000B6EB501F01D12868C7
:100D30000BE097FAA7F0B0FA80F040F04000B7EB74
:100D4000501F01D1286A00E0686A97FAA7F1B1FA4A
:100D500081F101F01F0206FA02F10842D8D1E069E0
:100D600080B36968C1F38101022970D04FF08071AE
:100D70004F000228484609D091FAA1F1B1FA81F159
:100D800048F82100FFF7D8FB044669E08A4691FA4B
:100D9000A1F1B1FA81F1C14648F82100FFF7CCFB7F
:100DA000804605E0FFF7C8FBA0EB0800022854D8F6
:100DB00097FAA7F0B0FA80F040F02000400902D086
:100DC000286801E061E0686A97FAA7F1B1FA81F159
:100DD00001F01F0106FA01F10842E3D1206AB0F5E3
:100DE000803F05D16868A16820F40030084368603E
:100DF000D4E908010843696821F474110843686064
:100E00009AFAAAF0B0FA80F049F82060FFF794FB54
:100E1000044606E021E000BFFFF78EFB001B02281E
:100E20001BD897FAA7F0B0FA80F040F020004009F4
:100E300001D0286800E0686A97FAA7F1B1FA81F159
:100E400001F01F0106FA01F10842E5D01DE01EE0A5
:100E5000FFF772FB001B022802D90320BDE8F88FC0
:100E600097FAA7F0B0FA80F040F02000400901D0D6
:100E7000286800E0686A97FAA7F1B1FA81F101F0F9
:100E80001F0106FA01F10842E2D10020E6E7012045
:100E9000E4E74FF0E0210428086903D020F00400C3
:100EA0000861704740F00400FAE7704710B5401E33
:100EB000B0F1807F01D3012010BD4FF0E0246061CC
:100EC0000F21601700F07CF90020A061072020614D
:100ED000002010BD10B5FFF7E8FF10BD70470000FF
:100EE00038B5044600680168C26811F0010F02F4C9
:100EF000807204D01AB1E16B41F00101E163016835
:100F0000C1F34002416901F0010122B119B1E26B64
:100F100042F00402E2630268C2F3800222B119B116
:100F2000E26B42F00202E2630268C2F3C00222B145
:100F300019B1E16B41F00801E1630168C068C1F3D8
:100F4000401100F0200019B110B1204600F0AAF9BC
:100F500020680168C068C1F3C01100F0800019B1B9
:100F600010B1204600F0AAFA21680868CA68C0F3E8
:100F7000801002F04002012570B16AB1CA682046B3
:100F800022F04002CA6094F83910322911D080F85A
:100F9000395000BF00F0DCF8E06B002808D0206872
:100FA00001684068009084F839502046FFF796FFAA
:100FB00038BD222180F83910ECE770B5040004D068
:100FC00094F83900002510B106E0012070BD84F8C6
:100FD0003850204600F020F8022084F839002068BC
:100FE000C16821F40051C160204600F0AFF92068CB
:100FF000016921F4904101612068416921F02A01D1
:1010000041612068C16841F40051C160E56301207D
:1010100084F83900002070BD10B50068154986B00D
:10102000884225D11448816941F4804181618069F9
:10103000124C00F4804004904FF4007000900220A5
:1010400001900320039069462046FFF789F90021AB
:101050002015CDE90001029169462046FFF780F98D
:10106000002211462520FFF7E5FA2520FFF7D6FAE2
:1010700006B010BD003801400010024000080140D9
:10108000704700002DE9F047044690F83900994672
:101090000D46012801D0222858D12DB322B394F84F
:1010A0003800012852D0012684F838600027E76311
:1010B00094F8390022281AD05FF0120084F8390021
:1010C000A284E2844FF48058E08C4B46401EE084BA
:1010D000A0684FF0000240454FF08001204613D138
:1010E00000F01FFA08BB04E00120BDE8F0873220C1
:1010F000E4E728882168C0F308004860206908B147
:101100006D1C08E0AD1C06E000F00BFA68B9216820
:1011100015F8010B4860E08C0028D5D14B46002221
:101120004021204600F0FDF908B10320DDE794F8E6
:101130003900322806D084F8396000BF84F838704E
:101140000020D2E7222084F83900F7E70220CCE71C
:101150007047FEE730B5174885B0816941F010014E
:101160008161816901F010010491816941F02001E0
:101170008161816901F020010491816941F00401DC
:10118000816180690C4D00F004004FF4005404901C
:10119000002221462846FFF7CAF90120CDE9004088
:1011A0000220039069462846FFF7DAF8FFF70CF8AB
:1011B00005B030BD0010024000100140FEE770474E
:1011C0000907090E002806DA00F00F0000F1E02000
:1011D00080F8141D704700F1E02080F8001470477B
:1011E0007047704710B5FFF7ADF9BDE81040FFF745
:1011F00071BE30B58FB001210804CDE90010002484
:10120000029402250491CDE907504FF4E0100990B3
:101210006846FFF77FFB00B1FEE70F20CDE90A0526
:101220004FF48060CDE90C4002210AA80E94FFF72C
:1012300033FA00B1FEE7FFF7F3FA4FF47A71B0FB2F
:10124000F1F0FFF733FE0420FFF723FE00221146E2
:10125000501EFFF7EFF90FB030BD00000D480168D8
:1012600041F00101016041680B4A11404160016891
:101270000A4A11400160016821F48021016041683F
:1012800021F4FE0141604FF41F0181600449C00355
:1012900008607047001002400000FFF8FFFFF6FEF4
:1012A00008ED00E010B590F83910222903D032295A
:1012B00001D0022010BD8168B1F5805F11D00169B5
:1012C000002901681FD0496801F07F03816A4A1C28
:1012D00082620B70C18D491E0904090CC18518D0AA
:1012E00030E00269816A002A0268526805D0D2B2F1
:1012F0000A80816A491C8162ECE7C2F308020A8015
:10130000816A891CF7E74A68816A4B1C83620A700C
:10131000E0E70168CA6822F02002CA6090F839103C
:10132000322911D00168CA6822F48072CA6001684B
:101330004A6922F001024A615FF0010180F8391028
:10134000FFF79EFE002010BD1221F7E72DE9F041C6
:10135000044600680169E26821F4405111430161CB
:101360002169A0680843616908432168CA6841F29D
:101370000C639A430243CA6020684169A26921F460
:101380004071114341614C492068642532268842EE
:101390003CD1FFF763FA00EBC00101EB001061687C
:1013A0008900B0FBF1F7FFF759FA00EBC00101EB40
:1013B00000106168B0468900B0FBF1F0B0FBF5F0B9
:1013C0006FF01801484307EB800106EB0110B0FBFA
:1013D000F5F000F0F006FFF741FA00EBC00101EB79
:1013E000001061688900B0FBF1F0B0FBF5F006EB8E
:1013F0000016FFF733FA00EBC00101EB0010616843
:101400008900B0FBF1F7FFF729FA3BE0FFF70EFA8E
:1014100000EBC00101EB001061688900B0FBF1F73F
:10142000FFF704FA00EBC00101EB00106168B04661
:101430008900B0FBF1F0B0FBF5F06FF01801484304
:1014400007EB800106EB0110B0FBF5F000F0F006B1
:10145000FFF7ECF900EBC00101EB001061688900B7
:10146000B0FBF1F0B0FBF5F006EB0016FFF7DEF98C
:1014700000EBC00101EB001061688900B0FBF1F7DF
:10148000FFF7D4F900EBC00101EB0010616889009F
:10149000B0FBF1F0B0FBF5F06FF01801484307EB3B
:1014A000800108EB0110B0FBF5F0216800F00F009F
:1014B00030448860BDE8F0810038014090F8391070
:1014C000122903D0322901D0022070478168B1F57A
:1014D000805F016A0BD04A1C026202680978516081
:1014E000C18C491E0904090CC1840ED017E009887B
:1014F0000268C1F30801516001690029016A02D044
:10150000491C0162ECE7891CFBE70168CA6822F00C
:101510008002CA600068C16841F04001C1600020DB
:1015200070472DE9F0471D4690460E460446FFF7EA
:1015300003F807465FEA08004FF000094FF0010882
:1015400008D030E0681C05D095B1FEF7F5FFC01B50
:10155000A8420DD82068006836EA0000F2D127E0E2
:10156000681C20D025B1FEF7E7FFC01BA8421AD99E
:101570002068C16821F08001C1602068C16821F045
:101580002001C1602068C16821F48071C1602068B9
:10159000416921F00101416184F8398084F8389073
:1015A0000320BDE8F0872068006836EA0000D7D045
:1015B0000020F6E70148FFF793BC00001800002068
:1015C000FEE70000014A024900F025B84516000870
:1015D000140000200FB4084610B5064A02A900F016
:1015E0001AF8044602A9002000F026F8204610BC94
:1015F0005DF814FB3916000802E008C8121F08C184
:10160000002AFAD170477047002001E001C1121F83
:10161000002AFBD170472DE9F04116460F460446DB
:10162000002503E03946B047641C6D1C2078002873
:10163000F8D12846BDE8F0810A68531C0B60107091
:101640007047000013B56423012269460248FFF782
:1016500019FD00981CBD000018000020FEF77AFF5D
:10166000FFF7C7FDFFF776FD1A4819490C22016004
:101670004FF4E131416000218160C160C0E9041292
:101680008161C161FFF799FC00B1FEE7FEF75EFDE5
:10169000FEF7D4FD0F4810A14030FFF79BFF15A0C7
:1016A000FFF790FF1D4D4FF400544FF47A7621461A
:1016B0002846FEF738FF1AA0FFF784FF05484030A0
:1016C000FEF79AFDFEF7BAFD3046FEF73EFEEEE766
:1016D000003801401800002048656C6C6F20487588
:1016E0006E672D67756920717561204E52463234E0
:1016F0004C30310048656C6C6F20646179206C61FE
:10170000206D61636820706861742064756E672065
:101710004E524632344C30310D200A000010014048
:1017200053656E64696E67207061636B61676520E5
:10173000746F207265636569766572200D200A00FA
:101740000000000000000000010203040607080971
:1017500000000000010203047817000800000020C8
:1017600018000000F8150008901700081800002065
:10177000600400000816000868310810016831088C
:10178000100100000000000000A24A040000000058
:04000005080000ED02
:00000001FF
